:100000000C94E8000C9405010C9405010C94050176
:100010000C9405010C9442010C9405010C9405010B
:100020000C9405010C9405010C9405010C94050138
:100030000C9405010C9405010C9405010C94050128
:100040000C94670D0C9405010C9405010C940501AA
:100050000C94430C0C94010C0C9405010C940501B8
:100060000C9405010C9405010C9405010C940501F8
:100070000C9405010C9405010C94050150726573F4
:1000800073206120627574746F6E20746F207374B6
:1000900061727420616761696E0047414D45204F70
:1000A0005645520043535345323031302F373230AA
:1000B000312070726F6A65637420627920506163C9
:1000C0006966697175652052756B696B7A613B2051
:1000D00053343532313731370041737465726F698B
:1000E0006473004E014B01470143013F013B01375F
:1000F0000133012F012B01BD01B901B501B101ADE2
:1001000001A901A501A1019E019A01960192018D0B
:10011000018901850181017C01780174016F016B06
:1001200001660161015C01570152016492927D6C8C
:1001300092926D809EA0C17C92924DE4A2A29D18E5
:100140002848FF4492926D468A926342FE037C9255
:10015000A27D868A92A2C3E0100E10E1C628102864
:10016000C7FC021C02FDF8040204F9FC0202FD8037
:1001700080FE80816492924DFE9098677C828A7C9A
:1001800003FE9090617C82827DFE2010FFFE403055
:1001900040FFFE020203FE1028C7040202FD82FE99
:1001A00083FE1010FF7C82925DFE909081FE929201
:1001B00083FE82827D7C828245FE92926D7E90904B
:1001C0007F1B5B324A001B5B25643B2564480000B3
:1001D00011241FBECFEFD8E0DEBFCDBF11E0A0E0FD
:1001E000B1E0E6E6FBE202C005900D92AC36B10745
:1001F000D9F722E0ACE6B1E001C01D92A03EB20703
:10020000E1F70E943E090C94B1150C940000E8E659
:10021000F0E0808182608083D99AECE6F0E0808112
:100220008F60808310926C01089580916C01181684
:100230003CF580916D016FB7F89490916C0192300C
:10024000B4F021E030E091E0F901E359FE4F408144
:10025000F901E459FE4F40839F5F292F30E0409120
:100260006C01042E000C550B241735076CF390918C
:100270006C01915090936C0166231CF4789408955E
:100280008FEF08951F920F920FB60F9211242F93A4
:100290003F934F935F936F937F938F939F93EF93CE
:1002A000FF9343B14F7080E090E0642F70E02091A5
:1002B0006C01243004F59B01082E02C0359527956A
:1002C0000A94E2F720FF17C02091710130E0082E58
:1002D00002C0359527950A94E2F720FD0CC0E09105
:1002E0006C0121E02E0F20936C010E2E000CFF0BF1
:1002F000E359FE4F8083019684309105C1F6409307
:100300007101FF91EF919F918F917F916F915F911B
:100310004F913F912F910F900FBE0F901F90189506
:1003200020E1829FC00111246F70862B40918001D3
:10033000042E000C550B14161506C4F4909186017A
:10034000891749F090E00AC0F901EA57FE4F208171
:10035000821304C001C090E0892F08959F5F292F68
:1003600030E02417350784F38FEF08958FEF089559
:100370001F93CF93DF93182F90919A018FEF890FDE
:10038000482F082E000C550B292F092E000C330B7B
:100390002F5F3F4F24173507E4F0D8E0D91BC82F53
:1003A000883028F4412F6D2F80E00E94620681E0A2
:1003B0008C0F90919A01D150482F082E000C550BAC
:1003C000292F092E000C330B2F5F3F4F24173507C1
:1003D00034F767E0691B412F81E00E946206DF91DC
:1003E000CF911F91089590E020918001022E000C82
:1003F000330B821793076CF4462FFC01EA57FE4F2C
:100400008081982F92959F7067E0691B8F700E9482
:100410006206089590E020918501022E000C330BB6
:10042000821793076CF4462FFC01EF57FE4F808133
:10043000982F92959F7067E0691B8F700E946206EB
:100440000895CF93882324F190918501891704F5AD
:10045000C82F60E00E940A0281E08C0F282F30E054
:1004600060918501462F062E000C550B2417350789
:1004700064F4F901EF57FE4F9081319790838F5FBD
:10048000282F30E024173507A4F3615060938501CD
:10049000CF9108954F925F926F927F92AF92BF92E9
:1004A000CF92DF92EF92FF920F931F93CF93DF9340
:1004B00083E080939A01109285011092800188B1A7
:1004C000886788B98CE782B906E811E00F2EFAE94F
:1004D000AF2EF1E0BF2EF02D0F2EFDE04F2E512C50
:1004E000612C712CF02D0E9405126B017C0127E01C
:1004F000C222DD24EE2420E8F222FF2084F481E0F1
:10050000C81AD108E108F108E8EFCE2ADD24DA9410
:10051000ED2CFE2CFFEFCF1ADF0AEF0AFF0A0E9434
:100520000512A30192010E948C11C3E0C60F6C2F2B
:100530008C2D0E9490018F3FB1F620E1C29EB00148
:100540001124CF70C62BF801C1938F0180918001D7
:100550008F5F80938001EA15FB0529F60E94A506AE
:100560008FED0E94B80180918001181684F4C0E0DC
:1005700060EF8C2F0E94F301CF5F2C2F30E0809131
:100580008001082E000C990B281739078CF38091F5
:100590008501181684F4C0E06FE08C2F0E940A02D7
:1005A000CF5F2C2F30E080918501082E000C990B35
:1005B000281739078CF3DF91CF911F910F91FF908E
:1005C000EF90DF90CF90BF90AF907F906F905F9053
:1005D0004F900895811110C080919A011816DCF493
:1005E00080E00E94B80180919A01815080939A0125
:1005F0008FED0E94B8010FC080919A0187305CF4A2
:1006000080E00E94B80180919A018F5F80939A01E7
:100610008FED0E94B80181E00895809185018430BA
:10062000C4F550919A0190E1599F90011124422FF5
:100630004260682F082E000C770B16161706B4F4CC
:1006400090918101941739F190E00AC0F901EF57B8
:10065000FE4F2081421304C09F3F41F080E0089587
:100660009F5F292F30E02617370784F391E0980F1A
:1006700090938501E82FF0E0EF57FE4F90E159028B
:1006800090011124226020836FE00E940A0281E021
:10069000089580E0089580E0089580919B01089579
:1006A00080939B010895CF93DF93282F30E09091A2
:1006B0009A01492F092E000C550B2417350751F0CC
:1006C000FA0131972E173F0729F032962E173F0770
:1006D00009F074C0613009F071C08FEF890F282FC5
:1006E000082E000C330B4F5F5F4F4217530714F176
:1006F000D8E0D91BC82F883058F48BE792E90197CE
:10070000F1F700C000004FE06D2F81E00E9462060B
:1007100081E08C0F90919A01D150482F082E000C47
:10072000550B292F092E000C330B2F5F3F4F241739
:10073000350704F767E0691B4FE082E00E9462061C
:1007400090919A018FEF890F482F082E000C550BBE
:10075000292F092E000C330B2F5F3F4F241735072D
:1007600014F1D8E0D91BC82F883058F48BE792E9F0
:100770000197F1F700C0000040E06D2F81E00E947A
:10078000620681E08C0F90919A01D150482F082E7B
:10079000000C550B292F092E000C330B2F5F3F4FF8
:1007A0002417350704F767E0691B40E082E00E94E8
:1007B00062068FED0E94B8010E94A70DDF91CF91D4
:1007C0000895BF92CF92DF92EF92FF920F931F9303
:1007D000CF93DF93D82EC62ECFEFC80FE82EF12C83
:1007E0008FEFE81AF80A8C2F0C2E000C990BE816E4
:1007F000F9060CF44AC018E01D19012F9C2FBB24E8
:10080000B394B60ED92F983058F48BE792E901973C
:10081000F1F700C000004CE3602F8B2D0E946206B0
:1008200091E09D0F0150292F092E000C330BE21689
:10083000F30644F71CC0C83058F48BE792E90197DF
:10084000F1F700C0000040E0612F802F0E94620697
:10085000CF5F11508C2F0C2E000C990BE816F90667
:1008600054F740E06D2F8D2D0E9462061AC0D7E02C
:10087000DD196894DD24D1F8DC0C4CE36D2F8D2D4F
:100880000E94620601E00C0DD6CFD7E0DD19689416
:10089000DD24D1F8D60E4CE36D2F8D2D0E9462061B
:1008A000E0CFDF91CF911F910F91FF90EF90DF90FC
:1008B000CF90BF900895BF92CF92DF92EF92FF92B8
:1008C0000F931F93CF93DF93D12C0F2EF1E8EF2ED0
:1008D000F1E0FF2EF02DCCC00D2D0D2C000C110BD6
:1008E000F801EA57FE4F6081D62FD295DF70C62FF0
:1008F000CF70CC24CA94CC0E89F5CD2C60E08D2D20
:100900000E94F301CD2FDD0FDD0B0E940512DC01EB
:10091000CB0187709927AA27B078BB2354F401979D
:10092000A109B109886F9F6FAF6FBF6F0196A11DBD
:10093000B11D682F70E06C177D0739F3F801EA5795
:10094000FE4F62957295707F7627607F76276F6085
:10095000608360EF8C2D0E94F3018AC06C2D8D2F77
:100960000E9453038FED0E94B8016C2F8D2F0E94BF
:1009700090018F3F09F468C020E1D29FC00111248B
:100980004C2D4F70482B60918501062E000C770B83
:10099000161617060CF058C0F7018081481799F019
:1009A00080E00AC0F901EF57FE4F9081491304C05F
:1009B000C82F8F3F49F448C08F5F282F30E026179B
:1009C000370784F341C0C0E06C2D8D2F0E94E103F6
:1009D0008C2F0E942102DD2DD39481E090E00E94B3
:1009E00098090E940512DC01CB0187709927AA277C
:1009F000B078BB2354F40197A109B109886F9F6FA8
:100A0000AF6FBF6F0196A11DB11DC82F6FE00E948F
:100A100090018F3F31F760E08D2D0E94F301ED2DA5
:100A20000D2C000CFF0BEA57FE4F20E1C202C00163
:100A300011248F60808360EF8D2D0E94F3016894F4
:100A4000DD24D1F8DD0E14C060E08D2D0E94F3018D
:100A5000F801EA57FE4F20E1D29FC0011124DC2D9E
:100A6000DF70D82BD08360EF8D2D0E94F301D394DB
:100A700080918001D8160CF42FCFDF91CF911F9178
:100A80000F91FF90EF90DF90CF90BF900895EF927D
:100A9000FF920F931F93CF93DF93D0E08CC0ED2E86
:100AA0000D2E000CFF08F701EF57FE4F8081C82F75
:100AB000CF70CF5FCF3021F48D2F0E9421027BC0F9
:100AC000082F02950F706C2F802F0E949001182F15
:100AD0008F3F09F45DC088230CF1809180011817C5
:100AE000ECF460E0812F0E94F301812F110F990B2C
:100AF00040918001242F042E000C330B215031092A
:100B00008217930744F4F901EA57FE4F2081FC0154
:100B1000EA57FE4F20834150409380016C2F802F75
:100B20000E94E1038D2F0E94210281E090E00E944B
:100B300098090E940512DC01CB0187709927AA272A
:100B4000B078BB2354F40197A109B109886F9F6F56
:100B5000AF6FBF6F0196A11DB11DC82F6FE00E943E
:100B600090018F3F31F780918001E82F082E000C13
:100B7000FF0BEA57FE4F90E1C99F900111242F60AF
:100B800020838F5F8093800160EF0E94F30113C088
:100B900060E08D2F0E940A02F701EF57FE4F20E11F
:100BA000029FC0011124CF70C82BC0836FE08D2F2E
:100BB0000E940A02DF5F80918501D8170CF46FCF85
:100BC000DF91CF911F910F91FF90EF9008951F93A8
:100BD000CF93DF930E94A50680E017E0DFE0C82FE7
:100BE000883070F4EBE7F2E93197F1F700C00000CC
:100BF000612F681B4CE3FD2FF81B8F2F0E946206AC
:100C000081E08C0F883059F74CE367E08BE00E945D
:100C1000620687E0D7E0C82F883060F4EBE7F2E99E
:100C20003197F1F700C000006D2F681B4FED8B5F0F
:100C30000E9462068FEF8C0F8F3F69F74FED67E0E0
:100C400080E00E94620680E017E0DFE0C82F883075
:100C500070F4EBE7F2E93197F1F700C00000612F83
:100C6000681B4CE3FD2FF81B8F2F0E94620681E06A
:100C70008C0F803159F74CE367E08BE00E946206ED
:100C800087E0D7E0C82F883060F4EBE7F2E93197CE
:100C9000F1F700C000006D2F681B4FED8E5F0E94C2
:100CA00062068FEF8C0F8F3F69F74FED67E08EE0A4
:100CB0000E946206DF91CF911F91089580E80E9403
:100CC000960C08951F93CF93DF938031B0F4683072
:100CD000A0F4142FC62FD82F81E00E94BE0C6C2FD9
:100CE000677080E1689F900111248D2F8F70822B97
:100CF0000E94BE0C812F0E94BE0CDF91CF911F91EC
:100D000008950F931F93CF93DF93803190F48B015D
:100D1000C82F83E00E94BE0C8C2F8F700E94BE0CE7
:100D2000E801085F1F4F89910E94BE0CC017D107D0
:100D3000D1F7DF91CF911F910F91089584E00E9428
:100D4000BE0C82E00E94BE0C08958FE00E94BE0C93
:100D500008950E945E060E94070140E060E07BE487
:100D600080E090E00E94AE0B0E94DE0C7894089523
:100D70000E94D50C6AE070E08AE090E00E94C40C0A
:100D800089ED90E09F938F930E94B0126CE070E029
:100D90008AE090E00E94C40C84EA90E09F938F93D5
:100DA0000E94B0120E94A5060F900F900F900F9016
:100DB00060EF88E291E00E94770A0DC02FE789EA90
:100DC00093E0215080409040E1F700C000000E9475
:100DD00015018F3F29F40E94860A8111EFCFE8CFD9
:100DE00008950E944A020E94D50C0E9459090E944F
:100DF00015010E94FC0B08954F925F926F927F92B3
:100E00008F929F92AF92BF92CF92DF92EF92FF921A
:100E10000F931F93CF93DF930E94F80C6093A80168
:100E20007093A9018093AA019093AB018091A801CE
:100E30009091A901A091AA01B091AB018093A0016A
:100E40009093A101A093A201B093A3018091A80166
:100E50009091A901A091AA01B091AB018093AE013C
:100E60009093AF01A093B001B093B1010E944D03E4
:100E7000882331F184EF91E0909309018093080178
:100E800088EE93E0A0E0B0E0809304019093050128
:100E9000A0930601B09307010E941501882381F0F9
:100EA00088B18C6788B90E9459090E94110E10926E
:100EB00072011AB880E00E9450038BB18F738BB916
:100EC000C12C0F2EF0E7DF2EF02DEE24EA940F2E2A
:100ED000FFEE8F2EF02DCAEDD2E06894992491F8A0
:100EE00000E10F2EF4EFAF2EBB24B394F02D60C1C0
:100EF000DAB80E941501182F0E94F80C6093A8011F
:100F00007093A9018093AA019093AB011F3F09F050
:100F10005BC10E94F50B882309F454C18881998133
:100F20000E945C12C11005C08B3109F447C1FE2C30
:100F30000DC021E0C21205C08B3509F442C1FE2C60
:100F400005C032E0C31206C0F82E8E2D44E4F41220
:100F500002C008C0FE2C982F9F7D9C3409F038C138
:100F6000C12C03C0C12C01C0FE2C80E00E94EA020B
:100F700073C0803241F4C12C03C0C12C01C0FE2CCF
:100F80000E940D0369C0C12C113009F465C052E400
:100F9000F51609F461C0112331F093E4F91619F044
:100FA0008F7D823521F481E00E94EA0255C08035B0
:100FB00009F052C08091720181114EC081E080938E
:100FC00072010E94F80C6093A4017093A5018093B4
:100FD000A6019093A7018AB83FC0888199810E9499
:100FE0005C128F7D803529F0113019F022E4F21265
:100FF00033C00E94F80C4090A4015090A50160906D
:10100000A6017090A701DC01CB0184199509A609FE
:10101000B70980939C0190939D01A0939E01B0938A
:101020009F010E94F80C40909C0150909D0160909F
:101030009E0170909F01DC01CB01840D951DA61DC2
:10104000B71D8093A8019093A901A093AA01B09322
:10105000AB01109272010AB9809172018111BDCF6A
:101060000E944D03811147C0209108013091090170
:101070008091A0019091A101A091A201B091A30142
:101080004091A8015091A9016091AA017091AB0112
:101090002901330F66087708840D951DA61DB71D1D
:1010A000481759076A077B0730F10E9447050E94DD
:1010B0001E0E0E94C70E0E946E0A6A3071058105DD
:1010C000910548F00E946E0AC501861B970B90930C
:1010D0000901809308018091A8019091A901A09134
:1010E000AA01B091AB018093A0019093A101A093BC
:1010F000A201B093A3010E944D03811159C04090F9
:10110000AE015090AF016090B0017090B10180913C
:10111000040190910501A0910601B0910701409151
:10112000A8015091A9016091AA017091AB01840DB1
:10113000951DA61DB71D481759076A077B07C0F103
:101140000E945B040E941E0E0E94C70E0E946E0A3F
:101150006A30710581059105D8F00E946E0A20E081
:1011600030E0A901261B370B480B590BDA01C901E6
:10117000880F991FAA1FBB1F88519C4FAF4FBF4FAD
:101180008093040190930501A0930601B093070199
:101190008091A8019091A901A091AA01B091AB0101
:1011A0008093AE019093AF01A093B001B093B101D1
:1011B0000E944D03882309F49BCE14C0CC24C39411
:1011C00001C0C92CFE2C48CF133009F4CDCE04C089
:1011D00031E4F312CECED1CE123009F4D0CEFE2CB3
:1011E0008E2DD2CEDF91CF911F910F91FF90EF9076
:1011F000DF90CF90BF90AF909F908F907F906F9037
:101200005F904F9008956EE070E08AE090E00E9459
:10121000C40C8AE990E09F938F930E94B0126FE014
:1012200070E08AE090E00E94C40C8CE790E09F930D
:101230008F930E94B0120E94E7050F900F900F90BD
:101240000F9017C06FE081E391E00E94770A0DC014
:101250002FE789EA93E0215080409040E1F700C0F9
:1012600000000E9415018F3F41F40E94860A8111FF
:10127000EFCF0E9415018F3F29F3089580EB94E092
:10128000A0E0B0E08093040190930501A0930601D3
:10129000B09307018CE781B988EF8AB90E94A9064B
:1012A0000E94B8060E94F1060E94FC060E940309F3
:1012B000F9CF1092BE011092BF011092C00110929E
:1012C000C1010E94D50C6AE070E08AE090E00E94C3
:1012D000C40C8091BE019091BF01A091C001B0915A
:1012E000C101BF93AF939F938F938BE391E09F9343
:1012F0008F930E949A126CE070E08AE090E00E9466
:10130000C40C0E949E0D282F082E000C330B3F9317
:101310008F9387E491E09F938F930E949A128DB7E9
:101320009EB70A960FB6F8949EBF0FBE8DBF089564
:10133000CF93DF93EC010597F9F48BB18C678BB9F0
:101340008091BE019091BF01A091C001B091C101F7
:101350000596A11DB11D8093BE019093BF01A0937E
:10136000C001B093C1010E94D50C6AE070E08AE030
:1013700090E00E94C40C1FC08091BE019091BF01FB
:10138000A091C001B091C1018C0F9D1FA11DB11D85
:101390008093BE019093BF01A093C001B093C1019F
:1013A0000E94D50C6AE070E08AE090E00E94C40CD4
:1013B000C930D10578F58091BE019091BF01A0910F
:1013C000C001B091C101BF93AF939F938F938BE303
:1013D00091E09F938F930E949A126CE070E08AE0F4
:1013E00090E00E94C40C0E949E0D282F082E000C35
:1013F000330B3F938F9387E491E09F938F930E94E9
:101400009A128DB79EB70A960FB6F8949EBF0FBE7C
:101410008DBF61C02B97C935D10578F58091BE018C
:101420009091BF01A091C001B091C101BF93AF9352
:101430009F938F9382E591E09F938F930E949A12DE
:101440006CE070E08AE090E00E94C40C0E949E0D67
:10145000282F082E000C330B3F938F9387E491E0E5
:101460009F938F930E949A128DB79EB70A960FB6DC
:10147000F8949EBF0FBE8DBF2EC08091BE0190918B
:10148000BF01A091C001B091C101BF93AF939F93E1
:101490008F938EE591E09F938F930E949A126CE058
:1014A00070E08AE090E00E94C40C0E949E0D282FFC
:1014B000082E000C330B3F938F9387E491E09F93AA
:1014C0008F930E949A128DB79EB70A960FB6F89422
:1014D0009EBF0FBE8DBFDF91CF9108956091BE0179
:1014E0007091BF018091C0019091C10108956093F6
:1014F0000A019093770180937601109279011092FE
:101500007801109275011092740108950F931F9342
:10151000CF93DF93CDB7DEB728970FB6F894DEBF31
:101520000FBECDBFE0917801F0917901309781F045
:10153000149110FF06C0109279011092780100E01A
:101540006BC03196F0937901E093780100E064C0BC
:10155000E0917401F0917501309709F449C0CF0111
:1015600001969093750180937401E081E1110AC0A6
:10157000109275011092740180E18093730100E074
:1015800010E04AC08FE98E0F8A3170F4F0E0EE0F60
:10159000FF1FEB5CFF4F85919491909379018093AD
:1015A000780100E010E038C08FEB8E0F8A3170F4C4
:1015B000F0E0EE0FFF1FEB58FF4F85919491909351
:1015C00079018093780100E010E026C080ED8E0F55
:1015D0008A3000F5F0E0EE0FFF1FED57FF4F8591C9
:1015E0009491909379018093780100E010E014C009
:1015F000809176019091770101E0009709F000E079
:101600009093750180937401109277011092760186
:1016100010E002C000E010E00E949E0620910A0146
:10162000FE013896CE010196112314F4208301C0E7
:101630001082110F3197E817F907B1F71982BE012F
:101640006F5F7F4F8FE00E94810680917301882336
:1016500089F0815080937301002311F0882311F0E9
:1016600090E003C091E001C091E081E0992329F06E
:1016700080E003C00023A1F3F7CF28960FB6F894BB
:10168000DEBF0FBECDBFDF91CF911F910F910895A7
:10169000CF93C82F8A3019F48DE00E94480B9FB772
:1016A000907802C0992329F18091C3018F3FD1F333
:1016B000F894E091C20181E08E0F8093C201F0E0C6
:1016C000EC53FE4FC0838091C3018F5F8093C301B1
:1016D0008091C2018F3F11F41092C201E1ECF0E061
:1016E000808180628083992339F0789480E090E053
:1016F00005C081E090E002C080E090E0CF910895C5
:101700008091D5028823E1F32FB72078F894809157
:10171000C3023091D50290E0831B91095AF4E09105
:10172000C3028091D502F0E0E81BF109EC52FD4FB5
:1017300080810AC0E091C3028091D502F0E0E81BED
:10174000F109EC53FD4F80819091D5029150909317
:10175000D502222309F0789490E008951092C201F6
:101760001092C3011092C3021092D5021092D402BB
:1017700040937A01DC01CB01880F991FAA1FBB1F80
:10178000880F991FAA1FBB1F9C01AD01220F331F99
:10179000441F551F60E072E18AE790E00E948C11BF
:1017A000BA01A9014F5F5F4F6F4F7F4FDB01CA0145
:1017B0001AF40196A11DB11DB595A795979587952A
:1017C00001979093C5008093C400E1ECF0E088E1BC
:1017D0008083808180688083EAEDF2E08BE091E095
:1017E000938382839183808308959091D50281E0D1
:1017F000911101C080E008951092C3021092D502A9
:1018000008951F920F920FB60F9211242F938F936A
:101810009F93EF93FF938091C301882329F18091D7
:10182000C2012091C30190E0821B91095AF4E0911A
:10183000C2018091C301F0E0E81BF109ED53FD4FB7
:1018400090810AC0E091C2018091C301F0E0E81BE1
:10185000F109EC53FE4F90818091C3018150809338
:10186000C3019093C60005C0E1ECF0E080818F7D5C
:101870008083FF91EF919F918F912F910F900FBED9
:101880000F901F9018951F920F920FB60F92112470
:101890002F933F934F935F936F937F938F939F9378
:1018A000AF93BF93CF93EF93FF93C091C600809106
:1018B0007A01882349F08091C3018F3F29F060E0CD
:1018C00070E08C2F0E94480B8091D502803120F06F
:1018D00081E08093D40218C0CD3009F4CAE0E091D1
:1018E000C30281E08E0F8093C302F0E0EC53FD4F02
:1018F000C0838091D5028F5F8093D5028091C3020F
:10190000803111F41092C302FF91EF91CF91BF91FA
:10191000AF919F918F917F916F915F914F913F9187
:101920002F910F900FBE0F901F90189594B1906B50
:1019300094B92C9A90E59CBD883021F0803211F04A
:10194000823019F491E09DBD01C01DBC803269F068
:1019500028F4883071F0803161F00EC0803429F0B5
:10196000803851F48CB581608CBD8CB582608CBDA3
:1019700003C08CB581608CBD2C9808958EBD0DB4CC
:1019800007FEFDCF8EB508959F938F937F936F933E
:1019900086EC91E09F938F930E94B0120F900F906E
:1019A0000F900F900F900F90089581EC91E09F930E
:1019B0008F930E94B0120F900F90089510927C01A7
:1019C00010927D0110927E0110927F018FEF87B9F6
:1019D00016BC8CE787BD82E084BD83E085BDEEE662
:1019E000F0E080818260808385B3827085BB08953A
:1019F0002FB7F89460917C0170917D0180917E01F8
:101A000090917F0122230CF47894089590917B01AA
:101A100081E0892780937B0118B80E946E0A6436A2
:101A200071058105910568F00E946E0A24E630E098
:101A300040E050E00E946A117093BF016093BE01C4
:101A400006C00E946E0A7093BF016093BE01809130
:101A500023018823D9F180917B01811123C0129841
:101A60004091BE015091BF019A01ADECBCEC0E94C7
:101A7000AB119695879596958795969587959C0138
:101A8000220F331F880F991F880F991F880F991FE6
:101A9000820F931F481B590BFA01E75EFE4F8081AE
:101AA00088B90895129A2091BE013091BF01ADEC22
:101AB000BCEC0E94AB119695879596958795969567
:101AC0008795FC01E75EFE4F808188B908951F92DB
:101AD0000F920FB60F9211242F933F934F935F9362
:101AE0006F937F938F939F93AF93BF93EF93FF93E6
:101AF0000E94060D80917C0190917D01A0917E0154
:101B0000B0917F010196A11DB11D80937C0190933E
:101B10007D01A0937E01B0937F01FF91EF91BF9172
:101B2000AF919F918F917F916F915F914F913F9175
:101B30002F910F900FBE0F901F9018958091240148
:101B400090912501A0912601B091270108958091DF
:101B5000240190912501A0912601B09127010197C0
:101B6000A109B1098093240190932501A093260136
:101B7000B09327018091240190912501A091260125
:101B8000B09127010397A105B10521F482B18C73AF
:101B900082B936C08091240190912501A09126013F
:101BA000B09127010297A105B10521F482B1847398
:101BB00082B926C08091240190912501A09126012F
:101BC000B09127010197A105B10521F482B184727A
:101BD00082B916C08091240190912501A09126011F
:101BE000B0912701892B8A2B8B2B51F480E090E058
:101BF0000E94980982B1847082B981E00E945003EA
:101C00000E946E0A623071058105910509F45E9AA1
:101C10000E946E0A653071058105910509F45F9A8D
:101C2000089584E090E0A0E0B0E0809324019093D8
:101C30002501A0932601B093270108958F929F92CA
:101C4000AF92BF92CF92DF92EF92FF92CF93DF934A
:101C50008FE19EE490938900809388008FE891E063
:101C600090938B0080938A0083E2809380008AE1C6
:101C7000809381000E9415018F3F09F07DC02FEFF6
:101C800080E792E0215080409040E1F700C00000E2
:101C9000189B03C0C4E3D0E002C0C2E3D0E0199BAC
:101CA00011C09E01AFE5B0E00E94AB1124E630E028
:101CB00040E050E00E946A11E9012A30310510F439
:101CC000CAE0D0E01A9B50C00F2EF6E68F2E982C5B
:101CD000F6E0AF2EF0E4BF2EF02D4BC02DEC3CEC27
:101CE0004CEC5DE3C501B4010E94380F4B015C016F
:101CF00020E030E0A9010E94A50F88231CF4812C6C
:101D0000912C54019E0140E050E060E472E48FE0C9
:101D100090E00E946A1169017A01B90180E090E0C7
:101D20000E944B10A50194010E94FD1020E030E0BC
:101D300048EC52E40E94AA0F0E941C106115710524
:101D400039F06150710970938B0060938A0004C070
:101D500010928B0010928A0021E0C21AD108D09212
:101D60008900C092880008C0812C912C540168948D
:101D7000B6F81B9BC7CFB2CFDF91CF91FF90EF900A
:101D8000DF90CF90BF90AF909F908F900895AF92CB
:101D9000BF92CF92DF92EF92FF920F931F93CF9358
:101DA000DF93CC24C394D12C0CE710E06894AA24D0
:101DB000A6F8CAE7D0E00F2EF6E8BF2EF02D0F2EC2
:101DC000F8E7EF2EF12CF02D02C0D394C394F80164
:101DD000A082B882D11004C080818E7F808304C02D
:101DE000F801808181608083888180648883888114
:101DF00086FDFDCFF701808191819093D902809378
:101E0000D802D11016C08091D8029091D9028330A7
:101E1000924020F480E00E94EA02D7CF8091D8025D
:101E20009091D9028331924080F281E00E94EA02CF
:101E3000CCCF8091D8029091D902843F914038F064
:101E40008091D8029091D9028930924010F00E947E
:101E50000D0321E02C1508F0B8CFDF91CF911F9131
:101E60000F91FF90EF90DF90CF90BF90AF900895CB
:101E70005058BB27AA270E94500F0C94C3100E94F1
:101E8000B51038F00E94BC1020F039F49F3F19F4CF
:101E900026F40C94B2100EF4E095E7FB0C94AC1011
:101EA000E92F0E94D41058F3BA176207730784070A
:101EB000950720F079F4A6F50C94F6100EF4E09551
:101EC0000B2EBA2FA02D0B01B90190010C01CA01F4
:101ED000A0011124FF27591B99F0593F50F4503E9F
:101EE00068F11A16F040A22F232F342F4427585F91
:101EF000F3CF469537952795A795F0405395C9F7A9
:101F00007EF41F16BA0B620B730B840BBAF0915060
:101F1000A1F0FF0FBB1F661F771F881FC2F70EC0FF
:101F2000BA0F621F731F841F48F4879577956795D2
:101F3000B795F7959E3F08F0B0CF9395880F08F0BE
:101F40009927EE0F9795879508950E94881008F4B9
:101F500081E008950E94BE0F0C94C3100E94BC1033
:101F600058F00E94B51040F029F45F3F29F00C941E
:101F7000AC1051110C94F7100C94B2100E94D410B4
:101F800068F39923B1F3552391F3951B550BBB27A8
:101F9000AA2762177307840738F09F5F5F4F220FED
:101FA000331F441FAA1FA9F335D00E2E3AF0E0E8E4
:101FB00032D091505040E695001CCAF72BD0FE2F2E
:101FC00029D0660F771F881FBB1F261737074807C2
:101FD000AB07B0E809F0BB0B802DBF01FF2793587A
:101FE0005F4F3AF09E3F510578F00C94AC100C9482
:101FF000F7105F3FE4F3983ED4F3869577956795A5
:10200000B795F7959F5FC9F7880F911D96958795AE
:1020100097F90895E1E0660F771F881FBB1F6217CD
:1020200073078407BA0720F0621B730B840BBA0B8B
:10203000EE1F88F7E09508950E94DC1088F09F5706
:1020400098F0B92F9927B751B0F0E1F0660F771FDC
:10205000881F991F1AF0BA95C9F714C0B13091F0D2
:102060000E94F610B1E008950C94F610672F782FB7
:102070008827B85F39F0B93FCCF386957795679597
:10208000B395D9F73EF490958095709561957F4F03
:102090008F4F9F4F0895E89409C097FB3EF49095A9
:1020A0008095709561957F4F8F4F9F4F9923A9F031
:1020B000F92F96E9BB279395F695879577956795C0
:1020C000B795F111F8CFFAF4BB0F11F460FF1BC004
:1020D0006F5F7F4F8F4F9F4F16C0882311F096E997
:1020E00011C0772321F09EE8872F762F05C0662345
:1020F00071F096E8862F70E060E02AF09A95660FFE
:10210000771F881FDAF7880F9695879597F90895B6
:10211000990F0008550FAA0BE0E8FEEF16161706F8
:10212000E807F907C0F012161306E407F50798F060
:10213000621B730B840B950B39F40A2661F0232B79
:10214000242B252B21F408950A2609F4A140A695F5
:102150008FEF811D811D089597F99F6780E870E0DA
:1021600060E008959FEF80EC089500240A9416160D
:10217000170618060906089500240A941216130675
:10218000140605060895092E0394000C11F4882303
:1021900052F0BB0F40F4BF2B11F460FF04C06F5F1F
:1021A0007F4F8F4F9F4F089557FD9058440F551FF5
:1021B00059F05F3F71F04795880F97FB991F61F0C9
:1021C0009F3F79F087950895121613061406551F40
:1021D000F2CF4695F1DF08C0161617061806991FAC
:1021E000F1CF86957105610508940895E894BB27A1
:1021F00066277727CB0197F908950E9410110C9458
:10220000C3100E94B51038F00E94BC1020F0952336
:1022100011F00C94AC100C94B21011240C94F71023
:102220000E94D41070F3959FC1F3950F50E0551F95
:10223000629FF001729FBB27F00DB11D639FAA271B
:10224000F00DB11DAA1F649F6627B00DA11D661F6A
:10225000829F2227B00DA11D621F739FB00DA11D8B
:10226000621F839FA00D611D221F749F3327A00D45
:10227000611D231F849F600D211D822F762F6A2FE1
:1022800011249F5750409AF0F1F088234AF0EE0F46
:10229000FF1FBB1F661F771F881F91505040A9F773
:1022A0009E3F510580F00C94AC100C94F7105F3FEA
:1022B000E4F3983ED4F3869577956795B795F795AF
:1022C000E7959F5FC1F7FE2B880F911D9695879527
:1022D00097F90895A1E21A2EAA1BBB1BFD010DC0A0
:1022E000AA1FBB1FEE1FFF1FA217B307E407F507C6
:1022F00020F0A21BB30BE40BF50B661F771F881FA2
:10230000991F1A9469F760957095809590959B0137
:10231000AC01BD01CF010895052E97FB1EF400947A
:102320000E94A31157FD07D00E946A1107FC03D039
:102330004EF40C94A31150954095309521953F4F44
:102340004F4F5F4F089590958095709561957F4FA1
:102350008F4F9F4F0895A29FB001B39FC001A39FCD
:10236000700D811D1124911DB29F700D811D1124CE
:10237000911D08958F929F92AF92BF92CF92DF925C
:10238000EF92FF92CF93DF93EC01688179818A818C
:102390009B81611571058105910521F464E279ED58
:1023A0008BE597E02DE133EF41E050E00E948C1186
:1023B00049015A019B01AC01A7EAB1E40E946715EB
:1023C0006B017C01ACEEB4EFA50194010E94751580
:1023D000DC01CB018C0D9D1DAE1DBF1DB7FF03C0E1
:1023E0000197A109B04888839983AA83BB83BC0164
:1023F000CD019F77DF91CF91FF90EF90DF90CF904D
:10240000BF90AF909F908F9008958F929F92AF92C0
:10241000BF92CF92DF92EF92FF9260910001709194
:1024200001018091020190910301611571058105FF
:10243000910521F464E279ED8BE597E02DE133EF2E
:1024400041E050E00E948C1149015A019B01AC010E
:10245000A7EAB1E40E9467156B017C01ACEEB4EF12
:10246000A50194010E947515DC01CB018C0D9D1D09
:10247000AE1DBF1DB7FF03C00197A109B0488093EF
:10248000000190930101A0930201B0930301BC01EC
:10249000CD019F77FF90EF90DF90CF90BF90AF90EE
:1024A0009F908F9008956093000170930101809335
:1024B0000201909303010895CF93DF93EC012B81E8
:1024C00020FF33C026FF0AC02F7B2B838E819F8184
:1024D00001969F838E838A8190E029C022FF0FC0DE
:1024E000E881F9818081082E000C990B009719F47E
:1024F00020622B831AC03196F983E8830EC0EA85E7
:10250000FB85099597FF09C02B81019611F080E2A8
:1025100001C080E1822B8B8308C02E813F812F5F19
:102520003F4F3F832E83992702C08FEF9FEFDF91AC
:10253000CF910895A0E0B0E0E0EAF2E10C948A15B2
:10254000AE014B5F5F4FFA0161917191AF018091D4
:10255000DC029091DD020E94D612E2E00C94A615F6
:10256000A0E0B0E0E6EBF2E10C948815AE01495F23
:102570005F4FDA016D917D91AD010AED12E0F80136
:1025800082819381DC0113962C9113972860139616
:102590002C930E94D612D8011296ED91FC911397BC
:1025A0002381277F2383E4E00C94A415ABE0B0E003
:1025B000ECEDF2E10C947A156C017B018A01FC01CF
:1025C00017821682838181FFCCC1CE0101963C0126
:1025D000F6019381F70193FD859193FF81917F012E
:1025E000882309F4BAC1853239F493FD859193FFAC
:1025F00081917F01853229F4B60190E00E94CD14CB
:10260000E7CF912C212C312CFFE1F315D8F08B3240
:1026100079F038F4803279F08332A1F4232D2061EF
:102620001DC08D3261F0803369F4232D216016C006
:10263000832D8260382EE32DE4603E2E2AC0F32DD8
:10264000F8601DC037FC2DC020ED280F2A3040F067
:102650008E32B9F436FC81C1232D2064322E19C08C
:1026600036FE06C08AE0989E200D1124922E11C0DD
:10267000EAE02E9E200D1124222EF32DF0623F2E33
:1026800008C08C3621F4832D8068382E02C088362D
:1026900041F4F70193FD859193FF81917F018111B1
:1026A000B3CF982F9F7D9554933028F40C5F1F4F24
:1026B0009FE399830DC0833631F0833771F0833502
:1026C00009F059C021C0F801808189830E5F1F4F36
:1026D00088248394912C530113C02801F2E04F0EFB
:1026E000511CF801A080B18036FE03C0692D70E056
:1026F00002C06FEF7FEFC5010E94C2144C0182013E
:10270000F32DFF773F2E16C0280122E0420E511C08
:10271000F801A080B18036FE03C0692D70E002C0D0
:102720006FEF7FEFC5010E94B7144C01F32DF068E5
:102730003F2E820133FC1BC0822D90E08816990643
:10274000B0F4B60180E290E00E94CD142A94F4CF58
:10275000F50137FC859137FE81915F01B60190E06C
:102760000E94CD1421102A9421E0821A910881142C
:10277000910471F7E8C0843611F0893641F5F8010B
:1027800037FE07C060817181828193810C5F1F4F8A
:1027900008C060817181072E000C880B990B0E5FB9
:1027A0001F4FF32DFF763F2E97FF09C09095809520
:1027B000709561957F4F8F4F9F4FF0683F2E2AE0B5
:1027C00030E0A3010E940915882E861845C0853780
:1027D00031F4232D2F7EB22E2AE030E025C0932D38
:1027E000997FB92E8F36C1F018F4883579F0B5C0CD
:1027F000803719F0883721F0B0C0E92FE061BE2E94
:10280000B4FE0DC0FB2DF460BF2E09C034FE0AC01B
:10281000292F2660B22E06C028E030E005C020E156
:1028200030E002C020E132E0F801B7FE07C060816D
:102830007181828193810C5F1F4F06C0608171811D
:1028400080E090E00E5F1F4FA3010E940915882EC3
:102850008618FB2DFF773F2E36FE0DC0232D2E7FD1
:10286000A22E891458F434FE0BC032FC09C0832D0B
:102870008E7EA82E05C0B82CA32C03C0B82C01C096
:10288000B92CA4FE0FC0FE01E80DF11D808180333C
:1028900021F49A2D997EA92E09C0A2FE06C0B394F8
:1028A000B39404C08A2D867809F0B394A3FC11C0B8
:1028B000A0FE06C0B21488F4280C922C9B180EC0FF
:1028C000B21460F4B60180E290E00E94CD14B3949B
:1028D000F7CFB21418F42B1802C0982C212CA4FEA8
:1028E00010C0B60180E390E00E94CD14A2FE17C094
:1028F000A1FC03C088E790E002C088E590E0B60143
:102900000CC08A2D867859F0A1FE02C08BE201C06E
:1029100080E2A7FC8DE2B60190E00E94CD148914FC
:1029200038F4B60180E390E00E94CD149A94F7CF7A
:102930008A94F301E80DF11D8081B60190E00E94B8
:10294000CD148110F5CF222009F442CEB60180E2E9
:1029500090E00E94CD142A94F6CFF60186819781EB
:1029600002C08FEF9FEF2B96E2E10C949615FC01CD
:102970000590615070400110D8F7809590958E0FAA
:102980009F1F0895FC016150704001900110D8F71D
:10299000809590958E0F9F1F08950F931F93CF934F
:1029A000DF93FB01238121FD03C08FEF9FEF2CC03C
:1029B00022FF16C046815781248135814217530773
:1029C00044F4A081B1819D012F5F3F4F318320836B
:1029D0008C93268137812F5F3F4F3783268314C026
:1029E0008B01EC01FB010084F185E02D0995892B19
:1029F000E1F6D80116968D919C911797019617963E
:102A00009C938E931697CE01DF91CF911F910F91DA
:102A10000895FA01AA27283051F1203181F1E89474
:102A20006F936E7F6E5F7F4F8F4F9F4FAF4FB1E0C1
:102A30003ED0B4E03CD0670F781F891F9A1FA11DBC
:102A4000680F791F8A1F911DA11D6A0F711D811DBD
:102A5000911DA11D20D009F468943F912AE0269F82
:102A600011243019305D3193DEF6CF010895462FE1
:102A70004770405D4193B3E00FD0C9F7F6CF462FC2
:102A80004F70405D4A3318F0495D31FD405241932B
:102A900002D0A9F7EACFB4E0A695979587957795E8
:102AA0006795BA95C9F700976105710508959B016F
:102AB000AC010A2E06945795479537952795BA95F8
:102AC000C9F7620F731F841F951FA01D08950E94F0
:102AD000AB11A59F900DB49F900DA49F800D911DEB
:102AE00011240895B7FF0C9467150E946715821B87
:102AF000930B08952F923F924F925F926F927F9225
:102B00008F929F92AF92BF92CF92DF92EF92FF92FD
:102B10000F931F93CF93DF93CDB7DEB7CA1BDB0BA9
:102B20000FB6F894DEBF0FBECDBF09942A8839884E
:102B300048885F846E847D848C849B84AA84B98455
:102B4000C884DF80EE80FD800C811B81AA81B98161
:102B5000CE0FD11D0FB6F894DEBF0FBECDBFED0175
:062B60000895F894FFCF78
:102B660001000000E8030000F4010F00000003006C
:102B7600000000480B800B00003F065B4F666D7D32
:102B8600077F6F01040000003435323137313731A9
:102B96000047414D45204F5645520053636F7265BD
:102BA600203A20256C75004C69766573203A2025FD
:102BB600640053636F72653A20256C752000536379
:0C2BC6006F72653A20256C75202000001D
:00000001FF
